:100000000C94B1000C94C7080C94F5080C94CE0025
:100010000C94CE000C94CE000C94CE000C94CE0028
:100020000C94CE000C94CE000C94CE000C94CE0018
:100030000C94CE000C94CE000C94CE000C94CE0008
:100040000C94CE000C94CE000C94CE000C94CE00F8
:100050000C94CE000C94CE000C94CE000C94CE00E8
:100060000C94CE000C94CE0000407A10F35A00A0FD
:10007000724E18090010A5D4E80000E87648170071
:1000800000E40B54020000CA9A3B000000E1F505B1
:10009000000080969800000040420F000000A086FB
:1000A00001000000102700000000E803000000002D
:1000B0006400000000000A000000000001000000D1
:1000C00000002C76D888DC674F0823DFC1DFAE59EB
:1000D000E1B1B796E5E3E453C63AE651997696E87E
:1000E000E6C28426EB898C9B62ED407C6FFCEFBC02
:1000F0009C9F40F2BAA56FA5F490055A2AF75C932D
:100100006B6CF9676DC11BFCE0E40D47FEF520E662
:10011000B500D0ED902E0300943577050080841E45
:10012000080000204E0A000000C80C333333330FA0
:10013000986E12831141EF8D2114893BE65516CF3D
:10014000FEE6DB18D1844B381BF77C1D901DA4BB49
:10015000E424203284725E228100C9F124ECA1E5FE
:100160003D2711241FBECFEFD8E0DEBFCDBF11E089
:10017000A0E0B1E0E2E7FCE102C005900D92AA3EEA
:10018000B107D9F722E0AAEEB1E001C01D92A83D67
:10019000B207E1F70E9482060C94370E0C9400001F
:1001A0001899FECFF89428E180E090E0DC01299ACC
:1001B0000000880F991FAA1FBB1F29980000189BD9
:1001C00003C00196A11DB11D215089F7BC01CD01CD
:1001D00080582091F201222349F020E0299A000062
:1001E00029982F5F3091F2012317C0F37894089576
:1001F000CF92DF92EF92FF920E94D0000E945C0AA1
:100200006B017C016091EA017091EB018091EC013E
:100210009091ED010E945C0A9B01AC01C701B601FF
:100220000E947609FF90EF90DF90CF9008950E9492
:10023000F8002091EE013091EF014091F0015091D2
:10024000F1010E94E80908958130910521F481E0CF
:100250008093F20110C08330910521F483E08093F4
:10026000F20109C0029721F482E08093F20103C0F9
:1002700081E08093F20129980E94D00008958F9226
:100280009F92AF92BF92CF92DF92EF92FF920F9325
:100290001F934A015B0168017901219A29982098EE
:1002A00090E00E9424018092EE019092EF01A092D2
:1002B000F001B092F101C092EA01D092EB01E0921C
:1002C000EC01F092ED011F910F91FF90EF90DF9004
:1002D000CF90BF90AF909F908F900895CF93DF9372
:1002E00000D0CDB7DEB79A83898389819A81892B23
:1002F00089F022E014BC16BC25BD86B58D37E8F325
:1003000015BC89819A8101979A83898389819A8111
:10031000892B81F70F900F90DF91CF910895CF93A4
:10032000C82F807F8BB95898599A81E090E00E943D
:100330006E0159988AE090E00E946E0120E1C29F10
:10034000C00111248BB95898599A81E090E00E941D
:100350006E0159988AE090E00E946E01CF91089555
:1003600082E00E948F0181E090E00E946E0188E2AD
:100370000E948F0181E090E00E946E0181E00E9466
:100380008F0181E090E00E946E018EE00E948F015B
:1003900081E090E00E946E0180E80E948F0181E080
:1003A00090E00E946E010895CF93DF9300D000D0BB
:1003B000CDB7DEB790E8998390EC9A8394E99B835C
:1003C00094ED9C83FE01E60FF11D81509081890F11
:1003D0000E948F0181E090E00E946E010F900F90CB
:1003E0000F900F90DF91CF910895CF93C82F807F0A
:1003F0008BB9589A599A81E090E00E946E01599801
:100400008AE090E00E946E0120E1C29FC0011124A9
:100410008BB9589A599A81E090E00E946E015998E0
:100420008AE090E00E946E01CF910895CF93DF9310
:10043000EC018881882331F021960E94F501899191
:100440008111FBCFDF91CF910895CF92DF92EF9290
:10045000FF92CF93DF936B017C0120E030E040E01E
:100460005FE30E94E3098823B9F020E030E040E434
:100470005FE3C701B6010E94E3098823D1F020E0C1
:1004800030E040E85FE3C701B6010E94E30988233A
:10049000E9F0C0E0D0E002C0C8E0D0E020E030E009
:1004A00040EC5FE3C701B6010E94E3098823D9F05D
:1004B00002C0C0E1D0E020E030E040E050E4C701FD
:1004C000B6010E94E3098823E9F002C0C8E1D0E048
:1004D00020E030E040E450E4C701B6010E94E309A7
:1004E000882399F002C0C8E2D0E020E030E040E884
:1004F00050E4C701B6010E94E309811108C0C0E2BF
:10050000D0E005C0C8E3D0E002C0C0E3D0E0CE0137
:10051000DF91CF91FF90EF90DF90CF9008950F93F0
:100520001F9304E012E023E043E00E94790BC8012E
:100530000E94160289E091E00E9416021F910F911D
:100540000895EAE7F0E0808180648083808184FF01
:10055000FDCF809179008093F501EAE7F0E080819A
:1005600080648083808184FFFDCF809179008093B7
:10057000F501813258F460E070E080E89EE30E946B
:100580008F0260E070E080E89EE308959FED980F91
:10059000903258F460E070E080E09FE30E948F02A8
:1005A00060E070E080E09FE308959FEB980F903249
:1005B00058F460E070E080E49FE30E948F0260E006
:1005C00070E080E49FE308959FE9980F903258F41B
:1005D00060E070E080E89FE30E948F0260E070E0DE
:1005E00080E89FE308959FE7980F903258F460E009
:1005F00070E080EC9FE30E948F0260E070E080EC8E
:100600009FE308959FE5980F903258F460E070E002
:1006100080E090E40E948F0260E070E080E090E46F
:1006200008959FE3980F903258F460E070E080E402
:1006300090E40E948F0260E070E080E490E408950E
:10064000813E58F060E070E080E890E40E948F0204
:1006500060E070E080E890E4089560E070E0CB0135
:100660000895CF93DF93EC010A97BCF461E081E039
:100670000E94D40188E391E00E94160261E082E0CA
:100680000E94D4014AE06EE672E0CE010E94990B0E
:100690008EE692E00E9416020EC061E081E00E94A8
:1006A000D4014AE06EE672E0CE010E94990B8EE61C
:1006B00092E00E941602DF91CF910895EAE7F0E000
:1006C000808180648083808184FFFDCF8091790068
:1006D0008093F501EAE7F0E0808180648083809177
:1006E000F5018B3238F481E090E00E94310381E023
:1006F00090E0089595ED980F953138F482E090E000
:100700000E94310382E090E0089590EC980F9531BB
:1007100038F483E090E00E94310383E090E0089594
:100720009BEA980F953138F484E090E00E94310301
:1007300084E090E0089596E9980F953138F485E0CB
:1007400090E00E94310385E090E0089591E8980FD1
:10075000953138F487E090E00E94310387E090E023
:1007600008959CE6980F953138F488E090E00E9457
:10077000310388E090E0089597E5980F953138F4BB
:1007800089E090E00E94310389E090E0089592E4CE
:10079000980F953138F48AE090E00E9431038AE0A6
:1007A00090E008959DE2980F953138F48BE090E049
:1007B0000E9431038BE090E00895883E38F08CE091
:1007C00090E00E9431038CE090E0089580E090E09A
:1007D0000895CF93DF93EC0161E084E00E94D4019F
:1007E0004AE06EE672E0CE010E94990B8EE692E03E
:1007F0000E941602DF91CF910895EAE7F0E0808130
:1008000080648083808184FFFDCF80917900809314
:10081000F501EAE7F0E08081806480838091F50152
:100820008B3238F480E090E00E94E90380E090E0B1
:10083000089595ED980F9A3238F481E090E00E9487
:10084000E90381E090E008959BEA980F9A3238F42A
:1008500082E090E00E94E90382E090E0089591E850
:10086000980F9A3238F483E090E00E94E90383E025
:1008700090E0089597E5980F9A3238F484E090E07C
:100880000E94E90384E090E00895833D38F085E01C
:1008900090E00E94E90385E090E0089580E090E018
:1008A0000895CF93DF93EC0161E085E00E94D401CD
:1008B0004AE06EE672E0CE010E94990B8EE692E06D
:1008C0000E941602DF91CF910895EAE7F0E080815F
:1008D00080648083808184FFFDCF80917900809344
:1008E000F501EAE7F0E08081806480838091F50182
:1008F0008D3138F480E090E00E94510480E090E077
:10090000089593EE980F9C3038F481E090E00E94B7
:10091000510481E090E0089597ED980F903138F4FC
:1009200082E090E00E94510482E090E0089597EC0C
:10093000980F9C3138F483E090E00E94510483E0EA
:1009400090E008959BEA980F9C3138F484E090E0A1
:100950000E94510484E090E008959FE8980F9C3134
:1009600038F485E090E00E94510485E090E008951D
:1009700093E7980F9C3138F486E090E00E94510490
:1009800086E090E0089597E5980F9C3138F487E071
:1009900090E00E94510487E090E008959BE3980F57
:1009A0009C3138F488E090E00E94510488E090E0A7
:1009B0000895813E38F089E090E00E94510489E07A
:1009C00090E0089580E090E00895892B49F461E07B
:1009D00087E00E94D40186E191E00E94160208950A
:1009E00061E087E00E94D40189E191E00E94160253
:1009F0000895CF93DF93EAE7F0E0808180648083FD
:100A0000808184FFFDCF809179008093F501C1E062
:100A1000D0E0813810F4C0E0D0E0CE010E94E504BF
:100A2000CE01DF91CF910895CF93DF93EC010A9728
:100A3000BCF462E081E00E94D40188E391E00E946E
:100A4000160262E082E00E94D4014AE06EE672E0A3
:100A5000CE010E94990B8EE692E00E9416020EC013
:100A600062E081E00E94D4014AE06EE672E0CE01CD
:100A70000E94990B8EE692E00E94160262E084E0EA
:100A80000E94D4018CE191E00E941602DF91CF9187
:100A90000895EAE7F0E0808180648083808184FFAC
:100AA000FDCF809179008093F501EAE7F0E0808145
:100AB000806480838091F501863538F486E090E08B
:100AC0000E94140586E090E008959AEA980F953503
:100AD00038F48CE090E00E9414058CE090E00895DA
:100AE0008B3A38F088E190E00E94140588E190E0AC
:100AF000089580E090E00895EF92FF920F931F9386
:100B0000CF93DF937B018A01E9010E94310361E009
:100B100083E00E94D4018EE491E00E941602C70196
:100B20000E94E903C8010E945104CE010E94E5041D
:100B3000DF91CF911F910F91FF90EF90089561E0A9
:100B400081E00E94D40182E291E00E94160262E0FC
:100B500081E00E94D40184E291E00E94160208958F
:100B6000CF92DF92EF92FF920E949F0561E081E0B9
:100B70000E94D4018AE391E00E94160262E081E0C3
:100B80000E94D40196B186B18860981312C00E9469
:100B9000A1026B017C0162E081E00E94D401C701E7
:100BA000B6010E948F0296B186B18860981779F3DA
:100BB00003C0C12CD12C7601C701B601FF90EF9084
:100BC000DF90CF900895CF92DF92EF92FF920F9334
:100BD0001F93CF93DF93EC016B017A01890162E0EF
:100BE00081E00E94D40189E491E00E941602CA309B
:100BF000D105BCF462E088E00E94D40188E391E072
:100C00000E94160262E089E00E94D4014AE06EE68A
:100C100072E0CE010E94990B8EE692E00E941602CD
:100C20000EC062E088E00E94D4014AE06EE672E005
:100C3000CE010E94990B8EE692E00E94160262E0BD
:100C40008AE00E94D4018EE491E00E94160262E0E4
:100C50008BE00E94D4014AE06EE672E0C6010E9479
:100C6000990B8EE692E00E94160262E08CE00E94F0
:100C7000D4014AE06EE672E0C7010E94990B8EE64D
:100C800092E00E941602012B49F462E08EE00E947D
:100C9000D40186E191E00E94160208C062E08EE075
:100CA0000E94D40189E191E00E941602DF91CF9168
:100CB0001F910F91FF90EF90DF90CF9008958230B9
:100CC000910510F480E090E008957894409A0E9495
:100CD0009F0561E081E00E94D40180E591E00E94DF
:100CE000160262E081E00E94D40182E691E00E9457
:100CF000160296B186B184609817D9F340980E9485
:100D00009F05089583EF8AB981E187B988E384B9A3
:100D100095E290937C001092640097E890937A009B
:100D20009EE09093690093E09DBB85B916B81BB80F
:100D30000E94B00178940091040110910501209166
:100D4000060130910701409100015091010160912D
:100D5000020170910301809108010E943F010E94ED
:100D6000B0056093F8017093F9018093FA019093B4
:100D7000FB010E94250285B962E081E00E94D40156
:100D800085E791E00E94160261E081E00E94D401B3
:100D90008BE891E00E94160296B186B188609813A4
:100DA0000BC00E945E03909303028093020296B1EF
:100DB00086B188609817A9F384EF91E00E946E01D4
:100DC00096B186B1886098130BC00E94FD03909382
:100DD000FD018093FC0196B186B188609817A9F354
:100DE00084EF91E00E946E0196B186B188609813FD
:100DF0000BC00E94650490936D0280936C0296B1C3
:100E000086B188609817A9F384EF91E00E946E0183
:100E100096B186B1886098130BC00E94F904909334
:100E20006B0280936A0296B186B188609817A9F325
:100E30000E949F0561E081E00E94D40186EA91E072
:100E40000E94160262E081E00E94D40196B186B150
:100E5000886098130BC00E9449059093010280930B
:100E6000000296B186B188609817A9F30E949F0589
:100E7000C1E0D0E00F2EF9E0AF2EB12CF02D0F2EF7
:100E8000F5E0CF2ED12CF02D0CE010E0FF24F394F0
:100E9000E12C8091F3019091F401892B09F0B8C005
:100EA000809100029091010286309105B9F5409140
:100EB0000202509103029A012A5F3F4F3093F701DB
:100EC0002093F60180916C0290916D029093D7026D
:100ED0008093D6028091FC019091FD019093D50200
:100EE0008093D40280916A0290916B029093690280
:100EF000809368022C3031050CF486C02D3031050A
:100F000034F0465051095093F7014093F6010E9486
:100F10005F0690936B0280936A0276C08C309105D5
:100F200019F580910202909103029093F70180934A
:100F3000F60180916C0290916D029093D70280939C
:100F4000D6028091FC019091FD019093D50280938F
:100F5000D40280916A0290916B020E945F06909386
:100F600069028093680250C0489709F04DC04091D3
:100F70000202509103025093F7014093F601209131
:100F80006C0230916D02215031093093D7022093C9
:100F9000D6026091FC017091FD017093D5026093BF
:100FA000D40280916A0290916B02909369028093BF
:100FB00068022F3F3F4F41F5615071097093D50290
:100FC0006093D402B092D702A092D6026F3F7F4FB7
:100FD000D9F4415051095093F7014093F601D09252
:100FE000D502C092D4024115510529F41093F7019E
:100FF0000093F60109C04B30510531F40E945F06A1
:101000009093690280936802D093F401C093F30136
:101010001092FF011092FE010E949F058091FE0137
:101020009091FF01CD977CF520916A0230916B027F
:1010300040916C0250916D026091FC017091FD0134
:1010400080910202909103020E947C052091680227
:10105000309169024091D6025091D7026091D4023A
:101060007091D5028091F6019091F7010E94E305FD
:101070008091FE019091FF0101969093FF01809372
:10108000FE01CD978CF280916C0290916D020196D9
:101090008A30910529F090936D0280936C0235C0DF
:1010A00010926D0210926C028091FC019091FD01F2
:1010B00001968630910529F09093FD018093FC0103
:1010C00024C01092FD011092FC01809102029091C7
:1010D000030201968D30910529F0909303028093CD
:1010E000020213C0D0930302C093020280916A02ED
:1010F00090916B02892B29F4D0936B02C0936A0202
:1011000004C010926B0210926A029F2D4091F6016A
:101110005091F701209102023091030242175307C8
:1011200009F09E2D8F2D4091D6025091D70220912B
:101130006C0230916D024217530709F08E2D9823EF
:101140008F2D4091D4025091D5022091FC01309115
:10115000FD014217530709F08E2D892309F499CE1A
:101160008F2D40916A0250916B022091680230915C
:1011700069024217530709F08E2D882309F489CE9E
:101180000E9465061092F4011092F30182CE1F9224
:101190000F920FB60F9211242F933F934F935F93AB
:1011A0006F937F938F939F93AF93BF93EF93FF932F
:1011B0000E949F0561E081E00E94D40186EC91E0ED
:1011C0000E9416020E946506FF91EF91BF91AF91B8
:1011D0009F918F917F916F915F914F913F912F914F
:1011E0000F900FBE0F901F9018951F920F920FB681
:1011F0000F9211244F925F926F927F928F929F92E3
:10120000AF92BF92CF92DF92EF92FF920F931F9314
:101210002F933F934F935F936F937F938F939F93FE
:10122000AF93BF93EF93FF9344980E949F0561E0B3
:1012300081E00E94D40183ED91E00E9416020E9499
:1012400017012B013C0120E030E046E852E46091B8
:10125000F8017091F9018091FA019091FB010E94CF
:101260000C0B4B015C010E941701A30192010E942B
:1012700076096B017C0162E081E00E94D40104E008
:1012800012E023E043E0C701B6010E94790BC801D8
:101290000E941602A7019601C501B4010E94E3094C
:1012A00088230CF70E949F05449A0E949F05FF9196
:1012B000EF91BF91AF919F918F917F916F915F91CE
:1012C0004F913F912F911F910F91FF90EF90DF90E1
:1012D000CF90BF90AF909F908F907F906F905F90D6
:1012E0004F900F900FBE0F901F9018955058BB272E
:1012F000AA270E948E090C94D20A0E94C40A38F0D0
:101300000E94CB0A20F039F49F3F19F426F40C9484
:10131000C10A0EF4E095E7FB0C94BB0AE92F0E948A
:10132000E30A58F3BA17620773078407950720F09A
:1013300079F4A6F50C94050B0EF4E0950B2EBA2F5C
:10134000A02D0B01B90190010C01CA01A0011124CB
:10135000FF27591B99F0593F50F4503E68F11A1677
:10136000F040A22F232F342F4427585FF3CF469508
:1013700037952795A795F0405395C9F77EF41F162A
:10138000BA0B620B730B840BBAF09150A1F0FF0FF4
:10139000BB1F661F771F881FC2F70EC0BA0F621FE0
:1013A000731F841F48F4879577956795B795F795D0
:1013B0009E3F08F0B0CF9395880F08F09927EE0F65
:1013C0009795879508950E94970A08F481E00895FB
:1013D0000E94FC090C94D20A0E94CB0A58F00E9489
:1013E000C40A40F029F45F3F29F00C94BB0A511164
:1013F0000C94060B0C94C10A0E94E30A68F399232B
:10140000B1F3552391F3951B550BBB27AA27621700
:101410007307840738F09F5F5F4F220F331F441F0D
:10142000AA1FA9F335D00E2E3AF0E0E832D0915041
:101430005040E695001CCAF72BD0FE2F29D0660F2E
:10144000771F881FBB1F261737074807AB07B0E871
:1014500009F0BB0B802DBF01FF2793585F4F3AF077
:101460009E3F510578F00C94BB0A0C94060B5F3F2D
:10147000E4F3983ED4F3869577956795B795F795FD
:101480009F5FC9F7880F911D9695879597F90895E5
:10149000E1E0660F771F881FBB1F62177307840781
:1014A000BA0720F0621B730B840BBA0BEE1F88F790
:1014B000E0950895E89409C097FB3EF490958095D7
:1014C000709561957F4F8F4F9F4F9923A9F0F92F0A
:1014D00096E9BB279395F695879577956795B79588
:1014E000F111F8CFFAF4BB0F11F460FF1BC06F5F6E
:1014F0007F4F8F4F9F4F16C0882311F096E911C080
:10150000772321F09EE8872F762F05C0662371F0A0
:1015100096E8862F70E060E02AF09A95660F771FB4
:10152000881FDAF7880F9695879597F90895990F90
:101530000008550FAA0BE0E8FEEF16161706E8079D
:10154000F907C0F012161306E407F50798F0621BBE
:10155000730B840B950B39F40A2661F0232B242B93
:10156000252B21F408950A2609F4A140A6958FEFB2
:10157000811D811D089597F99F6780E870E060E004
:1015800008959FEF80EC089500240A94161617061C
:1015900018060906089500240A9412161306140664
:1015A00005060895092E0394000C11F4882352F0C7
:1015B000BB0F40F4BF2B11F460FF04C06F5F7F4F7F
:1015C0008F4F9F4F089557FD9058440F551F59F066
:1015D0005F3F71F04795880F97FB991F61F09F3F20
:1015E00079F087950895121613061406551FF2CF49
:1015F0004695F1DF08C0161617061806991FF1CF99
:1016000086957105610508940895E894BB276627BF
:101610007727CB0197F908950E941F0B0C94D20AEB
:101620000E94C40A38F00E94CB0A20F0952311F0E2
:101630000C94BB0A0C94C10A11240C94060B0E9452
:10164000E30A70F3959FC1F3950F50E0551F629F19
:10165000F001729FBB27F00DB11D639FAA27F00D0B
:10166000B11DAA1F649F6627B00DA11D661F829F32
:101670002227B00DA11D621F739FB00DA11D621F17
:10168000839FA00D611D221F749F3327A00D611D34
:10169000231F849F600D211D822F762F6A2F112416
:1016A0009F5750409AF0F1F088234AF0EE0FFF1F49
:1016B000BB1F661F771F881F91505040A9F79E3FA0
:1016C000510580F00C94BB0A0C94060B5F3FE4F3C9
:1016D000983ED4F3869577956795B795F795E795F6
:1016E0009F5FC1F7FE2B880F911D9695879597F9FF
:1016F0000895EF920F931F93CF93DF93E80147FD77
:1017000002C034E001C034E1042E000C550B57FF39
:1017100003C0519541955109E32E022F242FAE01AC
:101720000E94BE0BCE01DF91CF911F910F91EF90E0
:101730000895BB274A3031F4992322F4BDE29095F5
:1017400081959F4F0C94A50BBB27FB015527AA271A
:10175000880F991FAA1FA41710F0A41B839550513E
:10176000B9F7A05DAA3308F0A95DA193009779F7B6
:10177000B111B1931192CB010C94F00DA9E0B0E03E
:10178000E4ECFBE00C94060E6A01122FB02E2BE362
:10179000201720F0FF24F394F00E02C02CE3F22E69
:1017A0000F2D27E0AE014F5F5F4F0E94180DBC0167
:1017B0004981842F8970813031F0E1FC06C0E0FE60
:1017C00006C090E205C09DE203C09BE201C090E02C
:1017D0005E2D507143FF3CC0911102C083E001C0F7
:1017E00084E0811718F4212F281B01C020E051113B
:1017F0000BC0F601822F30E2882319F0319381501B
:10180000FBCFC20ED11C20E0992329F0D6019C9376
:10181000F60131966F01C6010396E2FE0AC03EE46E
:10182000D6013C9341E411964C93119712963C9348
:1018300006C03EE6F601308341E641833283FC0177
:10184000322F40E2332309F442C041933150FACFA2
:1018500042FF44C0911102C083E001C084E08117BF
:1018600018F4212F281B01C020E051110BC0F601F4
:10187000822F30E2882319F031938150FBCFC20EC2
:10188000D11C20E0992329F0D6019C93F6013196D2
:101890006F01C6010396E2FE0BC039E4D6013C930A
:1018A0003EE411963C93119736E412963C9307C0A0
:1018B00039E6F60130833EE6318336E63283FC01B9
:1018C000322F40E2332319F041933150FBCFFC011A
:1018D000E20FF11D10828EEF9FEFA6C021E030E0F5
:1018E000911102C020E030E0161617061CF4FB012F
:1018F000319602C0E1E0F0E02E0F3F1FBB2021F047
:10190000EB2DF0E0319602C0E0E0F0E02E0F3F1F3B
:10191000E12FF0E02E173F071CF4121B212F01C00E
:1019200020E08E2D887159F4F601822F30E2882351
:1019300019F031938150FBCFC20ED11C20E09923C6
:1019400029F0D6019C93F60131966F0151110BC01D
:10195000F601822F90E3882319F091938150FBCFF9
:10196000C20ED11C20E00F2D060F9A81342F30714A
:1019700044FF03C0913309F40150101624F40930D8
:1019800018F008E001C001E0AB0177FF02C040E0C1
:1019900050E0FB01E41BF50BA1E0B0E0AC0FBD1F74
:1019A000EA0FFB1F8EE2A82E4B01801A91080B2D27
:1019B00010E01195019511094F3FBFEF5B0721F42E
:1019C000D601AC9211966D01641775072CF0841640
:1019D000950614F4818101C080E34150510931968C
:1019E000D60111967D014017510724F0D6018C9342
:1019F0006701E2CF6417750739F4963320F4953305
:101A000019F4311101C081E3F6018083F701822FBF
:101A100090E2882319F091938150FBCFF701E20FF8
:101A2000F11D108280E090E02996ECE00C94220EEB
:101A3000283008F027E03327DA01990F311D87FDA0
:101A4000916000966105710539F432602E5F3D9317
:101A500030E32A95E1F708959F3F30F08038710513
:101A6000610509F03C5F3C5F3D93913008F0806870
:101A7000911DDF93CF931F930F93FF92EF92192F36
:101A8000987F9695E92F96959695E90FFF27EE5347
:101A9000FF4F99273327EE24FF24A701E701059084
:101AA0000894079428F4360FE71EF81E491F511DAD
:101AB000660F771F881F991F0694A1F7059007945A
:101AC00028F4E70EF81E491F561FC11D770F881F07
:101AD000991F661F0694A1F70590079428F4F80E45
:101AE000491F561FC71FD11D880F991F661F771FDB
:101AF0000694A1F70590079420F4490F561FC71FBD
:101B0000D81F990F661F771F881F0694A9F7849125
:101B10001095177041F0D695C79557954795F7944E
:101B2000E7941A95C1F7E8E6F0E0689415901591EE
:101B300035916591959105907FE27395E118F10AD1
:101B4000430B560BC90BD009C0F7E10CF11E431F24
:101B5000561FC91FD01D7EF4703311F48A95E6CF4D
:101B6000E894015030F0080F0AF40027021708F437
:101B7000202F2395022F7A3328F079E37D932A953D
:101B8000E9F710C07D932A9589F606949795679595
:101B9000379517951794E118F10A430B560BC90BAB
:101BA000D00998F023957E9173957A3308F070E30D
:101BB0007C932013B8F77E9170617D9330F083950C
:101BC00071E37D9370E32A95E1F71124EF90FF9084
:101BD0000F911F91CF91DF91992787FD90950895DF
:101BE000DC01FC01672F71917723E1F7329704C084
:101BF0007C916D9370836291AE17BF07C8F308950F
:101C00002F923F924F925F926F927F928F929F920C
:101C1000AF92BF92CF92DF92EF92FF920F931F93FA
:101C2000CF93DF93CDB7DEB7CA1BDB0B0FB6F894AB
:101C3000DEBF0FBECDBF09942A88398848885F84EB
:101C40006E847D848C849B84AA84B984C884DF805C
:101C5000EE80FD800C811B81AA81B981CE0FD11D40
:101C60000FB6F894DEBF0FBECDBFED010895F89416
:021C7000FFCFA4
:101C72000000204188207F000120637570732020BE
:101C8200202020202000414D00504D00686F7572C9
:101C9200730020202020202020202020202020200F
:101CA20020202020202020202000486F77206D75E2
:101CB200636820666F6F643F00466F6F64543A003A
:101CC200464F4F442054494D4521202020202020BA
:101CD2002000496E2050726F677265737320202056
:101CE20020202020005365742054696D653A20201D
:101CF200202020202020202020200030303A3030A8
:101D020020202020202020202020202020202020D1
:101D1200202020202000496E74657276616C206F4D
:101D2200662046656564696E673F2020202020207A
:101D3200202020202000202020204F5645525249AA
:101D42004445004D6561737572696E6720466F6F19
:0A1D52006420202020202020000043
:00000001FF
